:020000040000FA
:100000000C94E0000C9408010C9408010C94080175
:100010000C9408010C9408010C9408010C9412062D
:100020000C9408010C9408010C9408010C9408012C
:100030000C9408010C9408010C9408010C9408011C
:100040000C9470050C9408010C94E0050C94BA050E
:100050000C9408010C9408010C9408010C940801FC
:100060000C9408010C94080100407A10F35A00A087
:10007000724E18090010A5D4E80000E87648170071
:1000800000E40B54020000CA9A3B000000E1F505B1
:10009000000080969800000040420F000000A086FB
:1000A00001000000102700000000E803000000002D
:1000B0006400000000000A000000000001000000D1
:1000C00000002C76D888DC674F0823DFC1DFAE59EB
:1000D000E1B1B796E5E3E453C63AE651997696E87E
:1000E000E6C28426EB898C9B62ED407C6FFCEFBC02
:1000F0009C9F40F2BAA56FA5F490055A2AF75C932D
:100100006B6CF9676DC11BFCE0E40D47FEF520E662
:10011000B500D0ED902E0300943577050080841E45
:10012000080000204E0A000000C80C333333330FA0
:10013000986E12831141EF8D2114893BE65516CF3D
:10014000FEE6DB18D1844B381BF77C1D901DA4BB49
:10015000E424203284725E228100C9F124ECA1E5FE
:100160003D2700000000240027002A0000000000B6
:10017000250028002B0000000008000201000003F9
:100180000407000000000000000000000000230041
:1001900026002900040404040404040402020202E8
:1001A000020203030303030301020408102040803A
:1001B0000102040810200102040810208B06A00C84
:1001C00011241FBECFEFD8E0DEBFCDBF22E0AAEBE7
:1001D000B1E001C01D92A139B207E1F711E0A0E042
:1001E000B1E0ECE5F8E202C005900D92AA3BB10740
:1001F000D9F710E0CFEDD0E004C02197FE010E94B6
:100200002012CE3DD107C9F70E94E6060C942114B6
:100210000C940000CF92DF92EF92FF92CF93DF9386
:10022000B0918102A0E08111AB2F8091820290E019
:10023000880F991FAC0146575E4FC0908702D0903F
:100240008802E0908902F0908A0230E020E0FA0112
:10025000C591D491E881B90190E080E0EB23EA13E5
:100260000AC02F5F3F4F6C157D058E059F0578F303
:100270006FEF7FEFCB01DF91CF91FF90EF90DF9099
:10028000CF900895833081F028F4813099F0823046
:10029000A9F008958730A9F08830C9F08430B1F40E
:1002A000809180008F7D03C0809180008F77809344
:1002B0008000089584B58F7784BD089584B58F7DBF
:1002C000FBCF8091B0008F778093B000089580912C
:1002D000B0008F7DF9CFCF93DF9390E0FC01E8551C
:1002E000FE4F24918C569E4FFC0184918823D1F0BF
:1002F00090E0880F991FFC01EE59FE4FA591B49133
:10030000FC01E459FE4FC591D491623071F49FB75E
:10031000F8943C91822F809583238C93E8812E2B37
:1003200028839FBFDF91CF9108958FB7F894EC9108
:100330002E2B2C938FBFF6CF8E3008F08E50877007
:10034000806480937C0080917A00806480937A003E
:1003500080917A0086FDFCCF8091780090917900A1
:1003600008953FB7F8948091CF019091D001A0916A
:10037000D101B091D20126B5A89B05C02F3F19F03D
:100380000196A11DB11D3FBFBA2FA92F982F882715
:10039000BC01CD01620F711D811D911D42E0660FF0
:1003A000771F881F991F4A95D1F708958F929F92C2
:1003B000AF92BF92CF92DF92EF92FF924B015C011E
:1003C0000E94B1016B017C010E94B1016C197D0991
:1003D0008E099F09683E734081059105A8F321E0CD
:1003E000821A9108A108B10888EEC80E83E0D81ED1
:1003F000E11CF11C81149104A104B10429F7FF90C0
:10040000EF90DF90CF90BF90AF909F908F90089526
:100410008F929F92AF92BF92EF92FF920F931F9392
:10042000CF93DF93CDB7DEB7C054D1400FB6F89469
:10043000DEBF0FBECDBF2FB7F8948091D30190914E
:10044000D401A091D501B091D6012FBF4091830274
:100450005091840260918502709186028C019D0109
:10046000041B150B260B370BB901A801403D574063
:1004700061057105A0F480918B02C05CDE4F0FB660
:10048000F894DEBF0FBECDBFDF91CF911F910F91CA
:10049000FF90EF90BF90AF909F908F9008958093C2
:1004A000830290938402A0938502B09386021092F7
:1004B0007E0210927D0210927C0210927B021092BA
:1004C0007A0262E080917F020E946B0161E070E03D
:1004D00080E090E00E94D60161E080917F020E945E
:1004E0006B0120917F0230E0F901EA58FE4F8491C0
:1004F000F901E855FE4F0491F901EC56FE4F1491B5
:10050000112391F081110E944201E12FF0E0EE0FE2
:10051000FF1FE459FE4FA591B4918FB7F894EC9169
:1005200000950E230C938FBF8091800285518230FD
:1005300020F58BE291E10197F1F762E080917F0273
:100540000E946B0180918C0290E08230910538F01E
:10055000880F991F880F991F05970197F1F7F89455
:1005600080E00E940A016F3F7F4F8F4F9F4F61F4E1
:1005700010928B02789480E080CF64E170E080E09C
:1005800090E00E94D601D9CF81E00E940A016F3F1E
:100590007F4F8F4F9F4F61F3CE0101967C015E012B
:1005A0009FEBA91A9EEFB90A870180E00E940A0119
:1005B000F801608371838283938381E00E940A0142
:1005C000F8016483758386839783085F1F4FA016A5
:1005D000B10659F7789430E020E0F70180809180EF
:1005E000A280B3804481558166817781FFEF8F16A9
:1005F0009F06AF06BF0631F04F3F0FEF5007600771
:10060000700719F410928B02B6CFF90183E0F595CB
:10061000E7958A95E1F7E658FD4F8081880F8416AB
:100620009506A606B70618F180832F5F3F4F18E0A6
:10063000E10EF11C2832310581F640917E022091B5
:100640007A0280917B02280F3327331F80917C022E
:10065000280F311D80917D02820F932F911D9927C4
:100660004817190679F681E080938B0206CF8160E6
:10067000DBCFAF92BF92CF92DF92EF92FF920F93B8
:100680001F93CF93DF936C017B018B01040F151F28
:10069000EB015E01AE18BF08C017D10759F0699190
:1006A000D601ED91FC910190F081E02DC6010995F4
:1006B000892B79F7C501DF91CF911F910F91FF90A1
:1006C000EF90DF90CF90BF90AF900895FC01538DD5
:1006D000448D252F30E0842F90E0821B930B54171C
:1006E00010F0CF96089501970895FC01918D828DA9
:1006F000981761F0A28DAE0FBF2FB11D5D968C9142
:10070000928D9F5F9F73928F90E008958FEF9FEF80
:1007100008952FB7F8948091D3019091D401A091BE
:10072000D501B091D6012FBF8093DF019093E001F6
:10073000A093E101B093E20187ED91E00E9475037F
:1007400097FF26C02FB7F8948091D3019091D401E0
:10075000A091D501B091D6012FBF4091DF015091FA
:10076000E0016091E1017091E201841B950BA60B01
:10077000B70B4091DB015091DC016091DD0170917C
:10078000DE0184179507A607B707B0F28FEF9FEF3A
:100790000895FC01918D828D981731F0828DE80FBC
:1007A000F11D858D90E008958FEF9FEF0895FC0176
:1007B000918D228D892F90E0805C9F4F821B910943
:1007C0008F739927089587ED91E00E94D70321E068
:1007D000892B09F420E0822F089580E090E0892B96
:1007E00029F00E94E30381110C9400000895FC019C
:1007F000A48DA80FB92FB11DA35ABF4F2C91848D82
:1008000090E001968F739927848FA689B7892C93DE
:10081000A089B1898C91837080648C93938D848D31
:10082000981306C00288F389E02D80818F7D808334
:100830000895EF92FF920F931F93CF93DF93EC01F4
:1008400081E0888F9B8D8C8D98131AC0E889F98977
:10085000808185FF15C09FB7F894EE89FF8960837A
:10086000E889F98980818370806480839FBF81E0FB
:1008700090E0DF91CF911F910F91FF90EF9008953D
:10088000F62E0B8D10E00F5F1F4F0F731127E02E18
:100890008C8D8E110CC00FB607FCFACFE889F98950
:1008A000808185FFF5CFCE010E94F703F1CFEB8D5C
:1008B000EC0FFD2FF11DE35AFF4FF0829FB7F89424
:1008C0000B8FEA89FB8980818062CFCFCF93DF9342
:1008D000EC01888D8823B9F0AA89BB89E889F98958
:1008E0008C9185FD03C0808186FD0DC00FB607FC8D
:1008F000F7CF8C9185FFF2CF808185FFEDCFCE01C0
:100900000E94F703E9CFDF91CF910895CF93DF9352
:10091000EC0188819981009711F00E94C21219821E
:1009200018821D821C821B821A82DF91CF9108954A
:10093000FC0180819181009711F00C94C2120895FE
:100940000F931F93CF93DF93EC01888199810097D8
:1009500059F02A813B812617370730F081E0DF917B
:10096000CF911F910F9108958B016F5F7F4F0E9470
:100970004B13009759F0998388831B830A832C813A
:100980003D81232B59F7FC011082E8CF80E0E7CFAF
:10099000EF92FF920F931F93CF93DF936115710531
:1009A00041F480E0DF91CF911F910F91FF90EF9084
:1009B000089541155105B1F07B01EC010C811D81B9
:1009C000040F151FB8010E94A004882351F3288149
:1009D00039818C819D81B701820F931F0E941A1467
:1009E0001D830C8381E0DECFCF93DF93EC0141E0E8
:1009F00050E068E171E00E94C804811103C0CE019B
:100A00000E948604CE01DF91CF910895CF93DF93AA
:100A1000EC01FB0144815581608171810E94C80411
:100A2000811103C0CE010E948604CE01DF91CF91D7
:100A30000895EF92FF920F931F93CF93DF93EC01F2
:100A40007B018A01BA010E94A00481110BC0CE0172
:100A50000E948604CE01DF91CF911F910F91FF90EC
:100A6000EF9008951D830C83B701888199810E94BE
:100A70001A14F0CFFB0101900020E9F73197AF0184
:100A8000461B570B0C9419050F931F93CF93DF93BD
:100A9000CDB7DEB762970FB6F894DEBF0FBECDBFFD
:100AA0008C01CB01F801118210821382128215820F
:100AB00014824AE0BE016F5F7F4F0E94C20CBE01EC
:100AC0006F5F7F4FC8010E943A0562960FB6F89497
:100AD000DEBF0FBECDBFDF91CF911F910F91089563
:100AE0001F920F920FB60F9211242F933F938F9363
:100AF0009F93AF93BF938091D3019091D401A09124
:100B0000D501B091D6013091CE0123E0230F2D37CE
:100B100058F50196A11DB11D2093CE018093D301FC
:100B20009093D401A093D501B093D6018091CF01C9
:100B30009091D001A091D101B091D2010196A11D57
:100B4000B11D8093CF019093D001A093D101B093B8
:100B5000D201BF91AF919F918F913F912F910F90B3
:100B60000FBE0F901F90189526E8230F0296A11D27
:100B7000B11DD2CF1F920F920FB60F9211242F9357
:100B80003F934F935F936F937F938F939F93AF9315
:100B9000BF93EF93FF9387ED91E00E94F703FF91DE
:100BA000EF91BF91AF919F918F917F916F915F91E5
:100BB0004F913F912F910F900FBE0F901F9018955E
:100BC0001F920F920FB60F9211242F938F939F9322
:100BD000EF93FF93E091E701F091E8018081E091CC
:100BE000ED01F091EE0182FD1BC090818091F0013A
:100BF0008F5F8F732091F101821741F0E091F00136
:100C0000F0E0E952FE4F958F8093F001FF91EF9154
:100C10009F918F912F910F900FBE0F901F9018955D
:100C20008081F4CF1F920F920FB60F9211240F9371
:100C30001F932F933F934F935F936F937F938F9364
:100C40009F93AF93BF932091840030918500B09B18
:100C50000BC081E086BB8091C1019091C2010196D9
:100C60009093C2018093C1018091C3019091C4010E
:100C700001964091BB015091BC018417950708F47F
:100C800045C01092C4011092C3018091C10190919E
:100C9000C201B0E0A0E0DC0199278827820F931FF2
:100CA000A11DB11D4091BD015091BE016091BF01D8
:100CB0007091C0018C019D01041B150B260B370B95
:100CC000B901A8014093C6015093C7016093C801C0
:100CD0007093C9018093BD019093BE01A093BF01A1
:100CE000B093C00181E08093C501BF91AF919F9106
:100CF0008F917F916F915F914F913F912F911F91B4
:100D00000F910F900FBE0F901F9018959093C401F4
:100D10008093C301EACFE7EDF1E01382128288EEFF
:100D200093E0A0E0B0E084839583A683B7838AE054
:100D300091E09183808385EC90E09587848784ECB3
:100D400090E09787868780EC90E0918B808B81EC98
:100D500090E0938B828B82EC90E0958B848B86EC79
:100D600090E0978B868B118E128E138E148EAAE7CD
:100D7000B2E082E015968C9315978BE016968C93D3
:100D80001697EAEAF1E0E4911796EC931797E6E9F3
:100D9000F1E0E4911896EC93189740E85EE360E088
:100DA00070E01D964D935D936D937C935097E4E7AF
:100DB000F2E011821082138212821582148250E0B6
:100DC00040E069EB71E0CF010C941905CF93DF93FC
:100DD000CDB7DEB7C756D1090FB6F894DEBF0FBE48
:100DE000CDBF789484B5826084BD84B5816084BDB4
:100DF00085B5826085BD85B5816085BD80916E00B9
:100E0000816080936E0010928100809181008260E9
:100E10008093810080918100816080938100809126
:100E200080008160809380008091B1008460809315
:100E3000B1008091B00081608093B00080917A0011
:100E4000846080937A0080917A00826080937A0037
:100E500080917A00816080937A0080917A00806826
:100E600080937A001092C100E091E701F091E801CF
:100E700012E01083E091E701F091E8011082E09127
:100E8000E301F091E4011082E091E501F091E601C7
:100E900080E180831092EF01E091EB01F091EC0191
:100EA00006E00083E091E901F091EA018081806130
:100EB0008083E091E901F091EA018081886080837C
:100EC000E091E901F091EA01808180688083E091FE
:100ED000E901F091EA0180818F7D808362E0809159
:100EE0007F020E946B012FB7F8948091D3019091FB
:100EF000D401A091D501B091D6012FBF805D97405C
:100F0000A109B1098093830290938402A093850282
:100F1000B093860287E380938C0261E083E00E94B5
:100F20006B011092C4011092C3011092C201109281
:100F3000C1011092BD011092BE011092BF0110922A
:100F4000C0011092C50180918000809181001092B3
:100F5000810010928000109285001092840081E040
:100F600086BB10926F008091B0008091B10010920A
:100F7000B1001093B00089EF8093B3000093BA01E1
:100F800017BB1092B2008DE790E09093BC01809364
:100F9000BB019FB7F89413BD8091BA018093B10053
:100FA000109370008BE08150F1F787E0809381000F
:100FB0009FBF1E012CE4220E311C87ED91E00E94A0
:100FC000D703181619060CF01EC464961FAE1EAE89
:100FD000649766961FAE1EAE669768961FAE1EAEED
:100FE000689750E040E069EB71E0CE018E5A9F4F68
:100FF0000E9419050E94890397FD10C08A3091054F
:1010000069F089831A8241E050E0BE016F5F7F4F33
:10101000CE018E5A9F4F0E94C804ECCF68968EADC9
:101020009FAD6897892B09F4E9C36AE171E0649682
:101030008EAD9FAD64970E9411148C01892B09F02D
:10104000DDC30E940802882341F0809180028C3029
:1010500009F464C038F48B30F1F060E070E080ECAB
:101060009FE741C085518230C0F7F0907C026F2D20
:1010700070E0762F662766277F7780917D02682B48
:1010800090E080E00E94550F2DEC3CEC4CEC5DE3D1
:101090000E94B60F5FC060917C0270E090E080E03B
:1010A0000E94550F4B015C01F0907D02F7FE0AC0D3
:1010B000AC019B0160E070E080E89FEB0E94AB1008
:1010C0004B015C016F2D6F7070E090E080E00E943A
:1010D000570F2DEC3CEC4CEC5DE30E94B60FA501E4
:1010E00094010E94AC100E948A11A4966CAF7DAF4F
:1010F0008EAF9FAFA4970E940802882351F0809181
:1011000080028B3030F08D3048F18551823008F408
:10111000A0C360E070E080EC9FE73CC0F0907C02F0
:101120006F2D70E090E080E00E94550F4B015C0154
:1011300060917D026F7070E090E080E00E94570F38
:101140002DEC3CEC4CEC5DE30E94B60FA501940144
:101150000E94AC10F7FEC7CF9058C5CF60917B02BC
:1011600070E090E080E00E94570F2DEC3CEC4CECDE
:101170005DE30E94B60F6B017C0160917A0270E022
:1011800090E080E00E94570F9B01AC01C701B601BF
:101190000E94AC100E948A11A8966CAF7DAF8EAFF2
:1011A0009FAFA897A696EEADFFADA697BF01FF0F24
:1011B000880B990B0E94570F4B015C01A2962EAD34
:1011C0003FADA297B901330F880B990B0E94570FBF
:1011D00026E636E646EE5FE30E94B60F20E030E0FA
:1011E00040E052E40E94AC106B017C0120E030E052
:1011F00048E852E40E94AB102AE939E949E95FE383
:101200000E94B60F2B013C0120E030E044E752E49D
:10121000C701B6010E94AC109B01AC01C301B20131
:101220000E94AC102B013C0122E133E840EC5DE36D
:10123000C501B4010E94B60F9B01AC01C301B2010C
:101240000E94AC1020E030E040E05FE30E94B60F67
:101250002B013C0120E030E04EE952E40E94C01135
:1012600018160CF01FC1A7019601C701B6010E9414
:10127000B60F6C966CAF7DAF8EAF9FAF6C97A5012C
:101280009401C501B4010E94B60FA0966CAF7DAF6A
:101290008EAF9FAFA09721E133E243E050E4C70156
:1012A000B6010E94B60F29E134E849E252E40E94F7
:1012B000AB102B013C0126E13BE442E251E4C501C5
:1012C000B4010E94B60F9B01AC01C301B2010E94A0
:1012D000AC102B013C0128E436E246E65EEBC70188
:1012E000B6010E94B60FA50194010E94B60F9B01A2
:1012F000AC01C301B2010E94AC102B013C0120EEF5
:101300003FE040EE5BEB6C966CAD7DAD8EAD9FAD7E
:101310006C970E94B60F9B01AC01C301B2010E9401
:10132000AC102B013C0128EF37E840E65DEBA096BE
:101330006CAD7DAD8EAD9FADA0970E94B60F9B01A9
:10134000AC01C301B2010E94AC102B013C012CEA9C
:101350003DE041EA5AE36C966CAD7DAD8EAD9FAD3C
:101360006C970E94B60FA50194010E94B60F9B01D5
:10137000AC01C301B2010E94AC102B013C0128EC6E
:101380003FE84FE55AE3C701B6010E94B60FA096A9
:101390002CAD3DAD4EAD5FADA0970E94B60F9B0149
:1013A000AC01C301B2010E94AC102B013C0121EF42
:1013B0003BE845E056EB6C966CAD7DAD8EAD9FADD8
:1013C0006C970E94B60FA0962CAD3DAD4EAD5FADB3
:1013D000A0970E94B60F9B01AC01C301B2010E940D
:1013E000AC102B013C0120E030E040E551E4C501A8
:1013F000B4010E94500F87FF47C220E030E040EA6E
:1014000052E4C701B6010E94C01187FD3DC220E031
:1014100030E040EE52E4C701B6010E94500F1816AA
:101420000CF482C2A501940160E070E080E591E4D3
:101430000E94AB1020E030E040E85EE30E94B60F6F
:101440004B015C0120E030E04EEB52E4C701B601F5
:101450000E94AB106B017C0120E030E0A9010E94EA
:10146000C01118160CF007C2A701960160E070E0E9
:1014700088E891E40E94AB102EE33DEE40E75DE387
:101480000E94B60F0E94CB119B01AC01C501B401B3
:101490000E94B60F9B01AC01C301B2010E94AB10C8
:1014A0002B013C0120E030E040E052E4C301B201F6
:1014B0000E94AB1026E838E34EE05FE30E94B60FCF
:1014C0000E948A116B0180E00E949C01BC01990F6F
:1014D000880B990B0E94570F20E030EC4FE754E443
:1014E0000E9418112CE53FE842EC5DE30E94AC102D
:1014F0002CEB34E743E15CE30E94181120E030E07C
:1015000040EC5FE30E94AB104B015C01E9E7F1E0C6
:101510008491EBEAF1E06490E7E9F1E074907720E0
:1015200099F081110E944201E72DF0E0EE0FFF1FBC
:10153000E657FE4FA591B491EC916E2291E080E0C8
:1015400009F490E0092F182F81E00E949C013C01D2
:1015500080E10E949C0165E271E08E3E910509F4F4
:1015600059C06BE271E08A3632E0930709F452C049
:1015700061E371E08333E2E09E0709F44BC06BE363
:1015800071E08C3AF3E09F0709F444C06AE471E02B
:10159000833A23E09207F1F16FE471E08E3B33E090
:1015A0009307C1F164E671E08734E3E09E0791F1AF
:1015B0006EE571E08138F3E09F0761F16EE671E05E
:1015C000813E22E0920731F164E771E08B3033E035
:1015D000930701F16AE771E08A38E1E09E07D1F0F4
:1015E00064E871E0883AF1E09F07A1F063E971E0F7
:1015F0008F34910579F068E971E0843C910551F0F0
:101600006DEA71E08938910529F08134914031F417
:1016100067EA71E084E792E00E943A056091CA01AE
:101620007091CB018091CC019091CD01660F771F15
:10163000881F991F1BA21AA21DA21CA21FA21EA2D4
:101640002AE0AE014F5F5F4F0E94CD0CBE016F5F7D
:101650007F4FCE0182960E943A05B301CE01889653
:101660000E944405B801CE018E960E9444051DAA31
:101670001CAA1FAA1EAA19AE18AE8E010F5F1F4F1B
:1016800022E044E0C501B4010E94A40C009709F4D3
:1016900046C1BC01CE01C4960E943A05B601CE01F6
:1016A00001960E944405A6966EAD7FADA697CE0129
:1016B000CA960E944405A2966EAD7FADA297CE0158
:1016C0008A5B9F4F0E94440522961FAE1EAE229752
:1016D00024961FAE1EAE249726961FAE1EAE2697EA
:1016E00028966EAD7FAD28976115710549F02C964F
:1016F0004EAD5FAD2C97CE01805C9F4F0E941905C7
:10170000CE01805C9F4F0E94F404BE01665C7F4F57
:101710000E9406050E94F404BE016F5F7F4F0E9485
:1017200006050E94F404BE016C5C7F4F0E94060512
:101730000E94F404BE01625D7F4F0E9406050E9474
:10174000F404BE01685D7F4F0E9406050E94F40408
:10175000BE016E5D7F4F0E9406050E94F40464E79F
:1017600072E00E940605F10111821082138212823A
:10177000158214828215930559F0FC0160817181F4
:101780006115710529F044815581C1010E94190537
:10179000CE01805C9F4F0E949804CE018A5B9F4FD0
:1017A0000E949804CE01CA960E949804CE01019628
:1017B0000E949804CE01C4960E949804CE018E9691
:1017C0000E949804CE0188960E949804CE018296C9
:1017D0000E949804F101448155816081718187EDF7
:1017E00091E00E94390342E050E067EB71E087ED41
:1017F00091E00E943903C1010E949804CE018E5AE3
:101800009F4F0E9498048091C5018823A9F02FB7AB
:10181000F8948091C6019091C701A091C801B09140
:10182000C9011092C5012FBF8093CA019093CB01CB
:10183000A093CC01B093CD0180E090E0892B09F416
:10184000BCCB0E94E303882309F4B7CB0E940000BD
:10185000B4CB60917A0270917B0276276727762756
:1018600090E080E00E94550F2DEC3CEC4CEC5DE3E9
:101870000E94B60F8FCC20E030E048E851E4C70169
:10188000B6010E94AC10F8CD20E030E04AEA52E404
:10189000C501B4010E94C01118160CF003CE20E05F
:1018A00030E040EA52E4C701B6010E94C01187FD52
:1018B000F9CD20E030E04EEA52E4C701B6010E94C3
:1018C000500F18160CF4EECD20E030E04AEA52E456
:1018D000C501B4010E94AB102DEC3CEC4CEC5DE377
:1018E0000E94B60F4B015C01A701960160E070E019
:1018F0008EEA92E40E94AB102DEC3CEC4CE45EE3EB
:101900000E94B60F9B01AC01C501B4010E94B60F45
:101910009B01AC01C301B2010E94AC10C1CDCE014C
:10192000C4960E948604BACE20E030E04AEA52E42F
:10193000C501B4010E94C01118160CF0B3CDB9CF87
:1019400084E792E00C949804EF920F931F93CF9347
:10195000DF93E80134E047FD34E1042E000C550B21
:1019600057FF03C0519541955109E32E022F242FB3
:10197000AE010E94090DCE01DF91CF911F910F9111
:10198000EF900895BB274A3031F4992322F4BDE249
:10199000909581959F4F0C94F00CBB27FA01A62FD0
:1019A0006217710581059105330B30FB66F0AA279C
:1019B000660F771F881F991FAA1FA21710F0A21B7E
:1019C00063953850A9F7A05DAA3308F0A95DA193EB
:1019D00036F7B111B1931082CA010C94400FBB27A6
:1019E000FB015527AA27880F991FAA1FA41710F0DB
:1019F000A41B83955051B9F7A05DAA3308F0A95DE7
:101A0000A193009779F7B111B1931192CB010C9486
:101A1000400FA9E0B0E0EFE0FDE00C947A106A011D
:101A2000F22EB02E102FFBE3AF2EA01608F41BE30E
:101A30001F5F012F27E0AE014F5F5F4F0E94680ECE
:101A4000BC018981982F9970913009F43FC09BE2C5
:101A5000E1FC04C09E2D9170E0FC3AC05E2D5071F7
:101A6000E82FE87083FF46C084E0911101C083E055
:101A7000EF2DE81B8F1508F0E0E0D6018E2F20E255
:101A8000552351F1992329F0D6019C93C601019663
:101A90006C0196012D5F3F4FE2FE24C08EE4D6011B
:101AA0008C9391E411969C93119712968C93D90183
:101AB0008E2F90E281111BC0E20FF32FF11D1082D7
:101AC0008EEF9FEF2996ECE00C9496109DE2C6CF26
:101AD00090E2C4CF2D9381508111FCCFCE0ED11C4A
:101AE000E0E0D0CF8EE6D6018C9391E6DBCF9D93DC
:101AF0008150E0CF482F447082FF3DC084E09111B7
:101B000001C083E08F1510F4EF2DE81BD6018E2F56
:101B100020E2552309F1992329F0D6019C93C601AF
:101B200001966C0196012D5F3F4FE2FE1BC089E4D8
:101B3000D6018C938EE411968C93119786E41296BD
:101B40008C93D9018E2F90E2882309F4B5CF9D9311
:101B50008150FACF2D9381508111FCCFCE0ED11C34
:101B6000E0E0D9CF89E6D6018C938EE611968C936E
:101B7000119786E6E4CF9B0177FF02C030E020E0BA
:101B8000A1E0B0E0911102C0B0E0A0E0F90131960F
:101B9000AE0FBF1F8B2C912CBB2009F461C05401E8
:101BA000EFEFAE1ABE0AAA0DBB1DFA161B0619F0FE
:101BB00014F04F2D4A1B511188C0E3FC59C0760127
:101BC000A42FB0E2A1114FC0C40ED11C992309F477
:101BD0005BC040E0D6011196F60190836D0155235C
:101BE00009F448C0012F060F9A81582F507184FFC5
:101BF00003C0913309F4015010160CF047C00930AE
:101C000008F008E0EEE2FE2E5B01A01AB1088501A3
:101C10009194819491082F3F320729F4D601FC92C8
:101C2000F60131966F016217730794F102171307DB
:101C30007CF5DB01A21BB30BAA24A394B12CAC0E40
:101C4000BD1EAA0DBB1D11968C9121503109D601E4
:101C5000119628153905F4F0F60180836D01DBCF6C
:101C6000B12CA12CA0CFF701B1937F01A150AACF35
:101C70009111B0CFD601942F50E302C05D939150E3
:101C80009111FCCFC40ED11C40E0ACCF01E0BACF23
:101C900080E3DBCF6217730731F4963388F4953312
:101CA00011F4552369F0F6018083FD01842F90E241
:101CB000811108C0A40FB11D1C9290E080E002CFFA
:101CC00081E3F1CF91938150F3CF911183CF8ACFEC
:101CD000283008F027E03327DA01990F311D87FDFE
:101CE000916000966105710539F432602E5F3D9375
:101CF00030E32A95E1F708959F3F30F08038710571
:101D0000610509F03C5F3C5F3D93913008F08068CD
:101D1000911DDF93CF931F930F93FF92EF92192F93
:101D2000987F9695E92F96959695E90FFF27EE53A4
:101D3000FF4F99273327EE24FF24A701E7010590E1
:101D40000894079428F4360FE71EF81E491F511D0A
:101D5000660F771F881F991F0694A1F705900794B7
:101D600028F4E70EF81E491F561FC11D770F881F64
:101D7000991F661F0694A1F70590079428F4F80EA2
:101D8000491F561FC71FD11D880F991F661F771F38
:101D90000694A1F70590079420F4490F561FC71F1A
:101DA000D81F990F661F771F881F0694A9F7849183
:101DB0001095177041F0D695C79557954795F794AC
:101DC000E7941A95C1F7E8E6F0E06894159015914C
:101DD00035916591959105907FE27395E118F10A2F
:101DE000430B560BC90BD009C0F7E10CF11E431F82
:101DF000561FC91FD01D7EF4703311F48A95E6CFAB
:101E0000E894015030F0080F0AF40027021708F494
:101E1000202F2395022F7A3328F079E37D932A959A
:101E2000E9F710C07D932A9589F6069497956795F2
:101E3000379517951794E118F10A430B560BC90B08
:101E4000D00998F023957E9173957A3308F070E36A
:101E50007C932013B8F77E9170617D9330F0839569
:101E600071E37D9370E32A95E1F71124EF90FF90E1
:101E70000F911F91CF91DF91992787FD909508953C
:101E8000DC01FC01672F71917723E1F7329704C0E1
:101E90007C916D9370836291AE17BF07C8F308956C
:101EA0000E94920F08F481E00895E89409C097FB1E
:101EB0003EF490958095709561957F4F8F4F9F4F21
:101EC0009923A9F0F92F96E9BB279395F695879565
:101ED00077956795B795F111F8CFFAF4BB0F11F428
:101EE00060FF1BC06F5F7F4F8F4F9F4F16C08823CF
:101EF00011F096E911C0772321F09EE8872F762F05
:101F000005C0662371F096E8862F70E060E02AF045
:101F10009A95660F771F881FDAF7880F9695879531
:101F200097F90895990F0008550FAA0BE0E8FEEF06
:101F300016161706E807F907C0F012161306E4078D
:101F4000F50798F0621B730B840B950B39F40A2686
:101F500061F0232B242B252B21F408950A2609F464
:101F6000A140A6958FEF811D811D08950E94C90F84
:101F70000C943A100E942C1038F00E94331020F07C
:101F8000952311F00C9423100C94291011240C9417
:101F90006E100E944B1070F3959FC1F3950F50E0A7
:101FA000551F629FF001729FBB27F00DB11D639F0B
:101FB000AA27F00DB11DAA1F649F6627B00DA11DB1
:101FC000661F829F2227B00DA11D621F739FB00D57
:101FD000A11D621F839FA00D611D221F749F3327C7
:101FE000A00D611D231F849F600D211D822F762F60
:101FF0006A2F11249F5750409AF0F1F088234AF03D
:10200000EE0FFF1FBB1F661F771F881F91505040A8
:10201000A9F79E3F510580F00C9423100C946E108C
:102020005F3FE4F3983ED4F3869577956795B7952F
:10203000F795E7959F5FC1F7FE2B880F911D969549
:10204000879597F9089597F99F6780E870E060E0B9
:1020500008959FEF80EC089500240A941616170641
:1020600018060906089500240A9412161306140689
:1020700005060895092E0394000C11F4882352F0EC
:10208000BB0F40F4BF2B11F460FF04C06F5F7F4FA4
:102090008F4F9F4F089557FD9058440F551F59F08B
:1020A0005F3F71F04795880F97FB991F61F09F3F45
:1020B00079F087950895121613061406551FF2CF6E
:1020C0004695F1DF08C0161617061806991FF1CFBE
:1020D00086957105610508940895E894BB276627E5
:1020E0007727CB0197F908952F923F924F925F92F5
:1020F0006F927F928F929F92AF92BF92CF92DF9218
:10210000EF92FF920F931F93CF93DF93CDB7DEB77C
:10211000CA1BDB0B0FB6F894DEBF0FBECDBF099410
:102120002A88398848885F846E847D848C849B8467
:10213000AA84B984C884DF80EE80FD800C811B8175
:10214000AA81B981CE0FD11D0FB6F894DEBF0FBEA4
:10215000CDBFED0108955058BB27AA270E94C31098
:102160000C943A100E942C1038F00E94331020F08A
:1021700039F49F3F19F426F40C9429100EF4E095DD
:10218000E7FB0C942310E92F0E944B1058F3BA1769
:10219000620773078407950720F079F4A6F50C947D
:1021A0006D100EF4E0950B2EBA2FA02D0B01B90186
:1021B00090010C01CA01A0011124FF27591B99F0BD
:1021C000593F50F4503E68F11A16F040A22F232FC9
:1021D000342F4427585FF3CF469537952795A79519
:1021E000F0405395C9F77EF41F16BA0B620B730BC0
:1021F000840BBAF09150A1F0FF0FBB1F661F771F31
:10220000881FC2F70EC0BA0F621F731F841F48F4E5
:10221000879577956795B795F7959E3F08F0B0CF6E
:102220009395880F08F09927EE0F97958795089555
:102230000E942C110C943A100E94331058F00E9406
:102240002C1040F029F45F3F29F00C942310511119
:102250000C946E100C9429100E944B1068F3992373
:10226000B1F3552391F3951B550BBB27AA27621792
:102270007307840738F09F5F5F4F220F331F441F9F
:10228000AA1FA9F335D00E2E3AF0E0E832D09150D3
:102290005040E695001CCAF72BD0FE2F29D0660FC0
:1022A000771F881FBB1F261737074807AB07B0E803
:1022B00009F0BB0B802DBF01FF2793585F4F3AF009
:1022C0009E3F510578F00C9423100C946E105F3FE4
:1022D000E4F3983ED4F3869577956795B795F7958F
:1022E0009F5FC9F7880F911D9695879597F9089577
:1022F000E1E0660F771F881FBB1F62177307840713
:10230000BA0720F0621B730B840BBA0BEE1F88F721
:10231000E09508950E9491116894B1110C946E108B
:1023200008950E94531088F09F5798F0B92F99276D
:10233000B751B0F0E1F0660F771F881F991F1AF0B0
:10234000BA95C9F714C0B13091F00E946D10B1E098
:1023500008950C946D10672F782F8827B85F39F097
:10236000B93FCCF3869577956795B395D9F73EF449
:1023700090958095709561957F4F8F4F9F4F0895F1
:102380000E94920F08F48FEF089519F416F40C943C
:1023900029100C940B120E945310B8F39923C9F31F
:1023A000B6F39F57550B87FF0E9419120024A0E631
:1023B00040EA900180585695979528F4805C660F06
:1023C000771F881F20F026173707480730F4621B55
:1023D000730B840B202931294A2BA6951794079457
:1023E000202531254A2758F7660F771F881F20F0D0
:1023F00026173707480730F4620B730B840B200D48
:10240000311D411DA09581F7B901842F9158880F86
:102410009695879508959F3F31F0915020F48795C8
:1024200077956795B795880F911D9695879597F93C
:10243000089591505040660F771F881FD2F7089576
:10244000EE0FFF1F0590F491E02D09940F931F9359
:10245000CF93DF938230910510F482E090E0E09119
:102460008F02F091900230E020E0B0E0A0E03097E1
:1024700099F42115310509F44AC0281B390B243081
:102480003105D8F58A819B816115710589F1FB01C0
:1024900093838283FE0111C04081518102811381A7
:1024A00048175907E0F04817590799F4109761F059
:1024B00012960C93129713961C933296CF01DF91CC
:1024C000CF911F910F91089500938F021093900266
:1024D000F4CF2115310551F04217530738F0A90107
:1024E000DB019A01BD01DF01F801C1CFEF01F9CF96
:1024F0009093900280938F02CDCFFE01E20FF31FE5
:10250000819391932250310939832883D7CF209129
:102510008D0230918E02232B41F4209102013091E3
:10252000030130938E0220938D022091000130919F
:1025300001012115310541F42DB73EB74091040149
:1025400050910501241B350BE0918D02F0918E0214
:10255000E217F307A0F42E1B3F0B2817390778F07A
:10256000AC014E5F5F4F2417350748F04E0F5F1FD9
:1025700050938E0240938D02819391939FCFF0E010
:10258000E0E09CCFCF93DF930097E9F0FC01329716
:1025900013821282A0918F02B0919002ED0130E07F
:1025A00020E01097A1F420813181820F931F2091A8
:1025B0008D0230918E022817390709F061C0F0931F
:1025C0008E02E0938D02DF91CF910895EA01CE173C
:1025D000DF07E8F54A815B819E0141155105B1F79E
:1025E000E901FB83EA8349915991C40FD51FEC1788
:1025F000FD0761F4808191810296840F951FE901A6
:1026000099838883828193819B838A83F0E0E0E0D1
:1026100012968D919C9113970097B9F52D913C914D
:102620001197CD010296820F931F20918D02309158
:102630008E022817390739F6309751F5109290021B
:1026400010928F02B0938E02A0938D02BCCFD383E1
:10265000C28340815181840F951FC817D90761F447
:102660004E5F5F4F88819981480F591F5183408386
:102670008A819B81938382832115310509F0B0CF34
:10268000F0939002E0938F029ECFFD01DC01C0CF5A
:1026900013821282D7CFB0E0A0E0E1E5F3E10C9421
:1026A00076108C01009751F4CB010E9426128C0108
:1026B000C801CDB7DEB7E0E10C949210FC01E60F43
:1026C000F71F9C0122503109E217F30708F49DC05F
:1026D000D901CD91DC911197C617D70798F0C53075
:1026E000D10530F3CE0104978617970708F3C61B70
:1026F000D70B2297C193D1936D937C93CF010E9406
:10270000C212D6CF5B01AC1ABD0A4C018C0E9D1EC5
:10271000A0918F02B0919002512C412CF12CE12C10
:10272000109731F580918D0290918E028815990550
:1027300009F05CC04616570608F058C080910001A9
:1027400090910101009741F48DB79EB7409104012B
:1027500050910501841B950BE817F90708F055C047
:10276000F0938E02E0938D02F90171836083A0CF14
:102770008D919C91119712966C90129713967C9064
:102780001397A815B90559F56C0142E0C40ED11C88
:10279000CA14DB0420F1AC014A195B09DA01129674
:1027A000159780F06282738251834083D9016D93C3
:1027B0007C93E114F10471F0D7011396FC93EE932E
:1027C000129776CF22968C0F9D1FF90191838083FB
:1027D000F301EFCFF0939002E0938F0269CF481698
:1027E000590608F42C017D01D3019ACFCB010E9438
:1027F00026127C01009749F0AE01B8010E9408142E
:10280000C8010E94C212870153CF10E000E050CFF0
:10281000FB01DC0102C001900D9241505040D8F7FD
:102820000895FB01DC018D91019080190110D9F30D
:10283000990B0895FB01DC0101900D920020E1F756
:10284000089510E0CFEDD0E004C0FE010E942012F8
:102850002196C03ED107C9F7F894FFCF000091023E
:102860008000000000001904390366036604D703E2
:102870007503C9032000537461727420446174614C
:10288000004E6F727468004E6F7274682D4E6F72D6
:1028900074686561737400456173742D4E6F727452
:1028A0006865617374004561737400456173742DCC
:1028B000536F7574686561737400536F7574682D18
:1028C000536F7574686561737400536F7574680035
:1028D000536F7574682D536F7574687765737400E2
:1028E000576573742D536F757468776573740057EB
:1028F00065737400576573742D4E6F7274687765D5
:102900007374004E6F7274682D4E6F7274687765C1
:062910007374000D0A00C3
:107E0000112484B714BE81FFF0D085E080938100F7
:107E100082E08093C00088E18093C10086E0809377
:107E2000C20080E18093C4008EE0C9D0259A86E02C
:107E300020E33CEF91E0309385002093840096BBD3
:107E4000B09BFECF1D9AA8958150A9F7CC24DD24C4
:107E500088248394B5E0AB2EA1E19A2EF3E0BF2EE7
:107E6000A2D0813461F49FD0082FAFD0023811F036
:107E7000013811F484E001C083E08DD089C08234E0
:107E800011F484E103C0853419F485E0A6D080C0E4
:107E9000853579F488D0E82EFF2485D0082F10E0AE
:107EA000102F00270E291F29000F111F8ED06801E7
:107EB0006FC0863521F484E090D080E0DECF843638
:107EC00009F040C070D06FD0082F6DD080E0C81688
:107ED00080E7D80618F4F601B7BEE895C0E0D1E017
:107EE00062D089930C17E1F7F0E0CF16F0E7DF06D8
:107EF00018F0F601B7BEE89568D007B600FCFDCFD4
:107F0000A601A0E0B1E02C9130E011968C91119780
:107F100090E0982F8827822B932B1296FA010C0160
:107F200087BEE89511244E5F5F4FF1E0A038BF0790
:107F300051F7F601A7BEE89507B600FCFDCF97BE46
:107F4000E89526C08437B1F42ED02DD0F82E2BD052
:107F50003CD0F601EF2C8F010F5F1F4F84911BD097
:107F6000EA94F801C1F70894C11CD11CFA94CF0C13
:107F7000D11C0EC0853739F428D08EE10CD085E9AC
:107F80000AD08FE07ACF813511F488E018D01DD067
:107F900080E101D065CF982F8091C00085FFFCCF94
:107FA0009093C60008958091C00087FFFCCF809118
:107FB000C00084FD01C0A8958091C6000895E0E648
:107FC000F0E098E1908380830895EDDF803219F02E
:107FD00088E0F5DFFFCF84E1DECF1F93182FE3DFCA
:107FE0001150E9F7F2DF1F91089580E0E8DFEE27F6
:047FF000FF270994CA
:027FFE00040479
:00000001FF
